:020000040000FA
:04000000FEEFFFF020
:020000040001F9
:10FF0E0012001200120003060C183021000ECE6EE5
:10FF1E00000EC66E000E0401006F1200000E096E78
:10FF2E00000E0A6E000E0B6E000E0C6E000E056EAD
:10FF3E00000E066E000E076E000E086E1200048E86
:10FF4E0087ECFFF095ECFFF08DECFFF089ECFFF005
:10FF5E00D0ECFFF088ECFFF0AFEFFFF0FEEFFFF01C
:10FF6E00140EF66EFF0EF76E010EF86E01EE11F125
:10FF7E0010EE06F00900F5C4EEF4E550E150FAE19A
:10FF8E0001EE01F1100EEE6AE806FDE10001A6EFAA
:10FF9E00FFF0E80E0D1807E1030E0E18D8A4DAEFE5
:10FFAE00FFF0DCEFFFF0F1EFFFF0610038F317F533
:10FFBE00800E1716110E0F24D96EDA6A050EDA228C
:10FFCE00DF50171261005CF4BEF40F2A000E0E6EA5
:10FFDE00000E0D6E0D4A0E2A050E0F64F9EFFFF09E
:10FFEE00FBEFFFF0FDEFFFF0000E0F6E1200B7EF0C
:02FFFE00FFF012
:020000040020DA
:10000000FF0FFF0FFF0FFF0FFF0FFF0FFF0FFF0F80
:10001000FF0FFF0FFF0FFF0FFF0FFF0FFF0FFF0F70
:020000040030CA
:0A0000008CFEFFFC9FFFFFFFFFFFD7
:00000001FF
